{
  "_format": "hh-sol-artifact-1",
  "contractName": "Credential",
  "sourceName": "contracts/Credential.sol",
  "abi": [
    {
      "anonymous": false,
      "inputs": [
        {
          "indexed": true,
          "internalType": "string",
          "name": "hash",
          "type": "string"
        },
        {
          "indexed": false,
          "internalType": "string",
          "name": "studentName",
          "type": "string"
        },
        {
          "indexed": false,
          "internalType": "string",
          "name": "course",
          "type": "string"
        },
        {
          "indexed": false,
          "internalType": "string",
          "name": "institution",
          "type": "string"
        },
        {
          "indexed": false,
          "internalType": "uint256",
          "name": "issueDate",
          "type": "uint256"
        }
      ],
      "name": "CredentialIssued",
      "type": "event"
    },
    {
      "inputs": [
        {
          "internalType": "string",
          "name": "",
          "type": "string"
        }
      ],
      "name": "credentials",
      "outputs": [
        {
          "internalType": "string",
          "name": "studentName",
          "type": "string"
        },
        {
          "internalType": "string",
          "name": "course",
          "type": "string"
        },
        {
          "internalType": "string",
          "name": "institution",
          "type": "string"
        },
        {
          "internalType": "uint256",
          "name": "issueDate",
          "type": "uint256"
        }
      ],
      "stateMutability": "view",
      "type": "function"
    },
    {
      "inputs": [
        {
          "internalType": "string",
          "name": "hash",
          "type": "string"
        }
      ],
      "name": "getCredential",
      "outputs": [
        {
          "components": [
            {
              "internalType": "string",
              "name": "studentName",
              "type": "string"
            },
            {
              "internalType": "string",
              "name": "course",
              "type": "string"
            },
            {
              "internalType": "string",
              "name": "institution",
              "type": "string"
            },
            {
              "internalType": "uint256",
              "name": "issueDate",
              "type": "uint256"
            }
          ],
          "internalType": "struct Credential.CredentialData",
          "name": "",
          "type": "tuple"
        }
      ],
      "stateMutability": "view",
      "type": "function"
    },
    {
      "inputs": [
        {
          "internalType": "string",
          "name": "hash",
          "type": "string"
        },
        {
          "internalType": "string",
          "name": "studentName",
          "type": "string"
        },
        {
          "internalType": "string",
          "name": "course",
          "type": "string"
        },
        {
          "internalType": "string",
          "name": "institution",
          "type": "string"
        },
        {
          "internalType": "uint256",
          "name": "issueDate",
          "type": "uint256"
        }
      ],
      "name": "issueCredential",
      "outputs": [],
      "stateMutability": "nonpayable",
      "type": "function"
    }
  ],
  "bytecode": "0x608060405234801561001057600080fd5b50610f03806100206000396000f3fe608060405234801561001057600080fd5b50600436106100415760003560e01c806322e4c74714610046578063bf4af9b114610062578063d091187f14610095575b600080fd5b610060600480360381019061005b91906108b4565b6100c5565b005b61007c60048036038101906100779190610873565b6102f1565b60405161008c9493929190610c14565b60405180910390f35b6100af60048036038101906100aa9190610873565b6104cf565b6040516100bc9190610d0e565b60405180910390f35b6000845111610109576040517f08c379a000000000000000000000000000000000000000000000000000000000815260040161010090610cce565b60405180910390fd5b600083511161014d576040517f08c379a000000000000000000000000000000000000000000000000000000000815260040161014490610cae565b60405180910390fd5b6000825111610191576040517f08c379a000000000000000000000000000000000000000000000000000000000815260040161018890610cee565b60405180910390fd5b600080866040516101a29190610bfd565b908152602001604051809103902060030154146101f4576040517f08c379a00000000000000000000000000000000000000000000000000000000081526004016101eb90610c6e565b60405180910390fd5b6040518060800160405280858152602001848152602001838152602001828152506000866040516102259190610bfd565b9081526020016040518091039020600082015181600001908051906020019061024f92919061072b565b50602082015181600101908051906020019061026c92919061072b565b50604082015181600201908051906020019061028992919061072b565b5060608201518160030155905050846040516102a59190610bfd565b60405180910390207fc2f536f38cdc031201490ef96cba18315de85ede088bb3e66b319afa46bfe28b858585856040516102e29493929190610c14565b60405180910390a25050505050565b60008180516020810182018051848252602083016020850120818352809550505050505060009150905080600001805461032a90610e15565b80601f016020809104026020016040519081016040528092919081815260200182805461035690610e15565b80156103a35780601f10610378576101008083540402835291602001916103a3565b820191906000526020600020905b81548152906001019060200180831161038657829003601f168201915b5050505050908060010180546103b890610e15565b80601f01602080910402602001604051908101604052809291908181526020018280546103e490610e15565b80156104315780601f1061040657610100808354040283529160200191610431565b820191906000526020600020905b81548152906001019060200180831161041457829003601f168201915b50505050509080600201805461044690610e15565b80601f016020809104026020016040519081016040528092919081815260200182805461047290610e15565b80156104bf5780601f10610494576101008083540402835291602001916104bf565b820191906000526020600020905b8154815290600101906020018083116104a257829003601f168201915b5050505050908060030154905084565b6104d76107b1565b600080836040516104e89190610bfd565b908152602001604051809103902060030154141561053b576040517f08c379a000000000000000000000000000000000000000000000000000000000815260040161053290610c8e565b60405180910390fd5b60008260405161054b9190610bfd565b908152602001604051809103902060405180608001604052908160008201805461057490610e15565b80601f01602080910402602001604051908101604052809291908181526020018280546105a090610e15565b80156105ed5780601f106105c2576101008083540402835291602001916105ed565b820191906000526020600020905b8154815290600101906020018083116105d057829003601f168201915b5050505050815260200160018201805461060690610e15565b80601f016020809104026020016040519081016040528092919081815260200182805461063290610e15565b801561067f5780601f106106545761010080835404028352916020019161067f565b820191906000526020600020905b81548152906001019060200180831161066257829003601f168201915b5050505050815260200160028201805461069890610e15565b80601f01602080910402602001604051908101604052809291908181526020018280546106c490610e15565b80156107115780601f106106e657610100808354040283529160200191610711565b820191906000526020600020905b8154815290600101906020018083116106f457829003601f168201915b505050505081526020016003820154815250509050919050565b82805461073790610e15565b90600052602060002090601f01602090048101928261075957600085556107a0565b82601f1061077257805160ff19168380011785556107a0565b828001600101855582156107a0579182015b8281111561079f578251825591602001919060010190610784565b5b5090506107ad91906107d9565b5090565b6040518060800160405280606081526020016060815260200160608152602001600081525090565b5b808211156107f25760008160009055506001016107da565b5090565b600061080961080484610d61565b610d30565b90508281526020810184848401111561082157600080fd5b61082c848285610dd3565b509392505050565b600082601f83011261084557600080fd5b81356108558482602086016107f6565b91505092915050565b60008135905061086d81610eb6565b92915050565b60006020828403121561088557600080fd5b600082013567ffffffffffffffff81111561089f57600080fd5b6108ab84828501610834565b91505092915050565b600080600080600060a086880312156108cc57600080fd5b600086013567ffffffffffffffff8111156108e657600080fd5b6108f288828901610834565b955050602086013567ffffffffffffffff81111561090f57600080fd5b61091b88828901610834565b945050604086013567ffffffffffffffff81111561093857600080fd5b61094488828901610834565b935050606086013567ffffffffffffffff81111561096157600080fd5b61096d88828901610834565b925050608061097e8882890161085e565b9150509295509295909350565b600061099682610d91565b6109a08185610d9c565b93506109b0818560208601610de2565b6109b981610ea5565b840191505092915050565b60006109cf82610d91565b6109d98185610dad565b93506109e9818560208601610de2565b6109f281610ea5565b840191505092915050565b6000610a0882610d91565b610a128185610dbe565b9350610a22818560208601610de2565b80840191505092915050565b6000610a3b601983610dad565b91507f43726564656e7469616c20616c726561647920697373756564000000000000006000830152602082019050919050565b6000610a7b601483610dad565b91507f43726564656e7469616c206e6f7420666f756e640000000000000000000000006000830152602082019050919050565b6000610abb601b83610dad565b91507f436f75727365206e616d652063616e6e6f7420626520656d70747900000000006000830152602082019050919050565b6000610afb601c83610dad565b91507f53747564656e74206e616d652063616e6e6f7420626520656d707479000000006000830152602082019050919050565b6000610b3b602083610dad565b91507f496e737469747574696f6e206e616d652063616e6e6f7420626520656d7074796000830152602082019050919050565b60006080830160008301518482036000860152610b8b828261098b565b91505060208301518482036020860152610ba5828261098b565b91505060408301518482036040860152610bbf828261098b565b9150506060830151610bd46060860182610bdf565b508091505092915050565b610be881610dc9565b82525050565b610bf781610dc9565b82525050565b6000610c0982846109fd565b915081905092915050565b60006080820190508181036000830152610c2e81876109c4565b90508181036020830152610c4281866109c4565b90508181036040830152610c5681856109c4565b9050610c656060830184610bee565b95945050505050565b60006020820190508181036000830152610c8781610a2e565b9050919050565b60006020820190508181036000830152610ca781610a6e565b9050919050565b60006020820190508181036000830152610cc781610aae565b9050919050565b60006020820190508181036000830152610ce781610aee565b9050919050565b60006020820190508181036000830152610d0781610b2e565b9050919050565b60006020820190508181036000830152610d288184610b6e565b905092915050565b6000604051905081810181811067ffffffffffffffff82111715610d5757610d56610e76565b5b8060405250919050565b600067ffffffffffffffff821115610d7c57610d7b610e76565b5b601f19601f8301169050602081019050919050565b600081519050919050565b600082825260208201905092915050565b600082825260208201905092915050565b600081905092915050565b6000819050919050565b82818337600083830152505050565b60005b83811015610e00578082015181840152602081019050610de5565b83811115610e0f576000848401525b50505050565b60006002820490506001821680610e2d57607f821691505b60208210811415610e4157610e40610e47565b5b50919050565b7f4e487b7100000000000000000000000000000000000000000000000000000000600052602260045260246000fd5b7f4e487b7100000000000000000000000000000000000000000000000000000000600052604160045260246000fd5b6000601f19601f8301169050919050565b610ebf81610dc9565b8114610eca57600080fd5b5056fea26469706673582212200add923ad971ba8171b5911c71d8c30b0ae0ec115726a3745e0a9a9b3de8d37c64736f6c63430008000033",
  "linkReferences": {},
  "deployedLinkReferences": {}
}